:020000040000FA
:06000000ABEFF1F012006D
:0600080009EFAEF012004A
:06001800ACEFADF0120098
:06002A001E0018E50100B4
:100030003F0B00000100000017E501003E0B00002F
:100040000100000015E50100310B00000200000076
:10005000A7E40100000500006E000000A6E4010016
:100060003D0B0000010000009DE40100E8090000D4
:100070000900000083E40100E30800001A0000000A
:1000800082E401003C0B00000100000081E401005B
:100090003B0B00000100000079E40100F1090000C1
:1000A0000800000076E40100220B000003000000BD
:1000B00063E40100EB0600001300000062E40100AD
:1000C0003A0B0000010000005EE401001E0B00007E
:1000D000040000005DE40100390B00000100000095
:1000E0005BE401002F0B00000200000051E401005E
:1000F000DE0900000A000000B5E30100380B000033
:1001000001000000B9E20100370B0000010000000F
:10011000E1E30100360B0000010000004EE40100A5
:10012000FD0800000300000006E401004A0700008B
:1001300048000000FCE30100D40900000A000000B0
:10014000FAE301002D0B000002000000F8E30100BB
:100150002B0B000002000000F6E30100290B000059
:10016000020000000BFB0000350B00000100000046
:10017000F2E301001A0B000004000000E8E30100B4
:10018000CA0900000A000000E6E30100270B000096
:040190000200000069
:0C019400030145510B012B5D01E112003D
:1001A000FE0E2B5D1BE01C0EE66EE66A290EE66E67
:1001B000030EE66E2B511C0DF3CF00F0F4CF01F0CF
:1001C000000E0026010E012200C0E6FF01C0E6FF7E
:1001D000E0ECD8F0026E060EE15E025045C32BFB48
:1001E000FE0E0301455D01E112001C0EE66EE66A9B
:1001F00045511C0DF3CF00F0F4CF01F0000E0026A6
:10020000010E012200C0E6FF01C0E6FF290EE66EE6
:10021000030EE66EE0ECD8F0026E060EE15E0250D0
:1002200012000B012B512C5D01E11200FE0E2C5D22
:1002300032E0270E0301C56FC66B0301010EC46FC8
:100240000301020EC26F030EC36F0B012C511C0D74
:10025000F3CFE9FFF4CFEAFF000EE926010EEA2210
:100260001B0EE926000EEA22EFCFC1F32C511C0D24
:10027000F3CFE9FFF4CFEAFF000EE926010EEA22F0
:10028000EECFBFF3EFCFC0F30301270EBF5F000E29
:10029000C05B20EC21F02BCB2CFB270E0301C56F9C
:1002A000C66B44C3C4F329C3C2F32AC3C3F3030117
:1002B000C25F000EC35B0301010EC16F0301020E9A
:1002C000BF6F030EC06F20EF21F00C01C20E1D6F37
:1002D0000F0E1E6F0301005101110FE1CCEC92F0E3
:1002E00026C000F327C001F3FF0E03010017070E1D
:1002F0000117000E0027040E01233C0EE66EE66A8D
:10030000E66A000EE66E080EE66E2EECD9F0006E80
:10031000050EE15E00500C01156B146B1451006E5C
:10032000016A090E005C000E015801E317D114CCDC
:1003300045F330DF500E006EE20E016E010E026ECC
:1003400014CC03F0046A056A060E2C6E2D6A2E6A20
:1003500014CC27F004C028F005C029F0C7ECB8F091
:1003600000502424F36E01502520F46E0250262004
:10037000F86EF4CFF7FFF3CFF6FFF62A000EF72260
:10038000F8220800F5CF1CFC500E006EE20E016E44
:10039000010E026E14CC03F0046A056A060E2C6E80
:1003A0002D6A2E6A14CC27F004C028F005C029F06D
:1003B000C7ECB8F000502424F36E01502520F46EF1
:1003C00002502620F86EF4CFF7FFF3CFF6FF020EAF
:1003D000F626000EF722F8220900F5CF16FC0A00D7
:1003E000F5CF17FC500E006EE20E016E010E026E8C
:1003F00014CC03F0046A056A060E2C6E2D6A2E6A70
:1004000014CC27F004C028F005C029F0C7ECB8F0E0
:1004100025C004F026C005F000502424F36E0150DE
:100420002520F46E02502620F86EF4CFF7FFF3CFAC
:10043000F6FF040EF626000EF722F8220900F5CF8B
:1004400018FC0A00F5CF19FC0C011C512DE11DCC44
:100450001AFC1ECC1BFC270E036A1625026E1751D0
:100460000322010E0226000E032202501825006E00
:1004700003501921016E010E0026000E01220050CA
:100480001D2701501E231DCC00F01ECC01F0026A76
:10049000036AD880FE0E00541E0E0154000E025452
:1004A000000E035402E2EFD7FFD71CCC44F3270E13
:1004B0000C011A250301296F000E0C011B210301F9
:1004C0002A6F29510C01162503012B6F2A510C01AB
:1004D000172103012C6F010E2B27000E2C232B510B
:1004E0000C01182503012D6F2C510C01192103015A
:1004F0002E6F0D0E3F6F409794DE500E006EE20E91
:10050000016E010E026E14CC03F0046A056A060E39
:100510002C6E2D6A2E6A14CC27F004C028F005C07A
:1005200029F0C7ECB8F024C003F025C004F026C0C1
:1005300005F000502424F36E01502520F46E025083
:100540002620F86EF4CFF7FFF3CFF6FF0800F5CFC3
:1005500028F39FEC17F00C01142BE0D612000C01CD
:10056000446B4451006E016A090E005C000E015894
:1005700001E3C8D044CC45F30DDE0D0E03013F5D11
:1005800001E0BDD04EDE03014D51285D01E0B7D042
:10059000180E256F020E266F4A510CE14BC312F361
:1005A0004CC313F34087040E3F6F4BC342F34CC35D
:1005B00043F3A2D0000E005D040E015906E3880E3D
:1005C000D8800055130E015503E2006B040E016F35
:1005D00000C312F301C313F3002B000E01234BC31E
:1005E00010F34CC311F36EECEEF026C037F327C0C6
:1005F00038F328C039F329C03AF3030140894A513E
:10060000040A3CE0070A17E0020A02E0030A74E168
:1006100046C318F347C319F348C31AF349C31BF37E
:10062000020E4A5D02E0000E01D0010E2495E8B0F2
:1006300024853F6B61D048514625026E49514721C0
:10064000036E02504B25006E03504C21016E00508A
:100650001219426F01501319436F46C318F347C371
:1006600019F348C31AF349C31BF3276B270E026F14
:10067000036B046B056B020E3F6F3ED046C3E9FF70
:1006800047C3EAFF020EE926000EEA22EECF04F08D
:10069000EFCF05F046C3E9FF47C3EAFF0450EE245D
:1006A000026E0550EE20036E02504B25006E035083
:1006B0004C21016E00501219426F01501319436F03
:1006C0000A0EE66EE66A46C3E6FF47C3E6FF180E6B
:1006D000E66E030EE66EE0ECD8F0006E060EE15E0C
:1006E00000500301050E3F6F0301010EAE6F0301C1
:1006F000020EAD6F88EC11F00C01445112000C0198
:10070000442B2FD7FE0C03014E51006E016A090ED7
:10071000005C000E015801E3010C4EC345F33ADDC5
:10072000030141A902D04199010C000C03014F5172
:10073000006E016A090E005C000E015801E3000C16
:100740004FC345F327DD070E03013F5D01E0000CB9
:10075000010C03015051006E016A090E005C000E8D
:10076000015801E3120050C345F314DD33C335F3E0
:1007700034C336F303013F51080A44E0010A42E062
:10078000050A40E0020A3BE0050A25E00D0A0FE0F9
:10079000010A0DE0070A3DE0020A3BE0010A39E0E8
:1007A000060A37E0040A2EE1F8ECA8F032D0030183
:1007B000010EAE6F0301110EAD6F88EC11F0030155
:1007C0001451151106E00E512F19F1E10F51301996
:1007D000EEE1080E15D00301010EAE6F0301110EFC
:1007E000AD6F88EC11F003011451151106E00E51A4
:1007F0002F19F1E10F513019EEE10C0E01D00D0E61
:100800003F6F12000301AE6B0301140EAD6F88EC55
:1008100011F09FEF17F003015151006E016A090EAC
:10082000005C000E015801E3120051C345F3B2DC35
:100830000301409751C350F3A9EF03F00301525154
:10084000006E016A090E005C000E015803E3F36AB2
:10085000F46A120052C345F39DDCE3DC0A0EE66E37
:10086000E66A180EE66E030EE66E530EE66E030E93
:10087000E66EE0ECD8F0006E060EE15E005010C3AC
:100880005DF311C35EF3530E006E030E016E00C0E4
:10089000F3FFF46E120003015F51006E016A090E4E
:1008A000005C000E015801E312005FC345F372DCE7
:1008B000B8DC03010E512F1902E10F51301908E085
:1008C0000301010EAE6F0301100EAD6F88EC11F045
:1008D000120003016051006E016A090E005C000EF7
:1008E00001580CE260C345F355DC3FC382FC070EA0
:1008F0000C01825D06E00B0E825D03E0F36AF46A90
:100900001200030131512F5D3251305919E3295141
:100910002B5D026E2C512A55036E0206000E035AFF
:1009200031512F5D046E30513255056E0450025C1A
:10093000006E05500358016E00C0F3FFF46E120004
:100940002F51315D006E32513055016E0006000EA0
:10095000015A00C0F3FF01C0F4FF1200030161510E
:10096000006E016A090E005C000E015801E3000CE4
:1009700061C345F30FDC61C360F3ABDFF3CF44FC2D
:10098000F4CF45FC0C01F350F41001E1000C010E12
:10099000441905E1455103E161C35FF37CDF0301C5
:1009A0004151010B14E129512B5D006E2C512A5548
:1009B000016ED890013200320C014451005C455167
:1009C000015805E361C35FF366DF03014181010E56
:1009D0000301C56FC66B0301C46F0301620EC26FD2
:1009E000030EC36F44C3C1F32FC3BFF330C3C0F3BF
:1009F00020EC21F003012F2B000E30232B512F5D13
:100A00002C51305904E329C32FF32AC330F30C01CE
:100A1000010E441906E1455104E161C35FF33BDF78
:100A2000010C030140BB13D0408B80ECEEF026C0DC
:100A300000F027C001F0026A036A060E0026000ECD
:100A400001220222032200C03BF301C03CF3010C4F
:100A50000C01E56BE66B03016351006E016A090E40
:100A6000005C000E015812E263C345F3CAEC00F0CB
:100A700063C360F32EDFF3CFE3FCF4CFE4FC0C019F
:100A8000F350F41006E163C35FF305DFF36AF46A21
:100A90001200E3CCE1FCE4CCE2FCE3510301665D2F
:100AA0000C01E4510301675904E266C3E1FC67C32A
:100AB000E2FC4151010B14E129512B5D006E2C51D8
:100AC0002A55016ED890013200320C01E351005CCE
:100AD000E451015805E363C35FF3DDDE03014181A7
:100AE00003012F510C01E125006E030130510C016F
:100AF000E221016E03012B51005C2C5101582DE3C2
:100B00002F512B5D0C01E56F030130512C590C0165
:100B1000E66FE5CCC5F3E8CFC6F30301010EC46F61
:100B200064C3C2F365C3C3F344C3C1F32FC3BFF3AC
:100B300030C3C0F320EC21F00C01E5510301642720
:100B40000C01E651030165230C01E551E15FE6511B
:100B5000E25B29C32FF32AC330F3E1CCC5F3E2CC27
:100B6000C6F30301010EC46F64C3C2F365C3C3F3CC
:100B700044C3C1F32FC3BFF330C3C0F320EC21F053
:100B80000C01E15103012F270C01E2510301302335
:100B90000C01E3510301665D0C01E4510301675947
:100BA00004E363C35FF377DE15D040BB13D0408B03
:100BB00080ECEEF026C000F027C001F0026A036A64
:100BC000060E0026000E01220222032200C03BF383
:100BD00001C03CF30C01E151E525006EE251E62134
:100BE000016E00C0F3FFF46E12000C015A6B5B6BD8
:100BF00003016851006E016A090E005C000E015885
:100C000012E268C345F3CAEC00F068C360F361DE2A
:100C1000F3CF58FCF4CF59FC0C01F350F41006E16B
:100C200068C35FF338DEF36AF46A120003014151CE
:100C3000010B14E129512B5D006E2C512A55016ED8
:100C4000D890013200320C015851005C59510158C2
:100C500005E368C35FF31FDE0301418158CC56FCF6
:100C600059CC57FC0C01585103016C5D0C015951D2
:100C700003016D5904E26CC356FC6DC357FC2F5140
:100C80000C015625006E030130510C015721016EF5
:100C900003012B51005C2C51015830E32F512B5D87
:100CA0000C015A6F030130512C590C015B6F5ACC67
:100CB000CDF3E8CFCEF369C3CAF36AC3CBF36BC3FA
:100CC000CCF344C3C9F32FC3C7F330C3C8F37EECDE
:100CD00021F05ACC00F05BCC01F0026A0050030115
:100CE000692701506A2302506B230C015A51565F49
:100CF0005B51575B29C32FF32AC330F356CCCDF396
:100D000057CCCEF369C3CAF36AC3CBF36BC3CCF33E
:100D100044C3C9F32FC3C7F330C3C8F37EEC21F03B
:100D20000C01565103012F270C01575103013023A9
:100D30000C01585103016C5D0C01595103016D59AF
:100D400004E368C35FF3A7DD15D040BB13D0408B2D
:100D500080ECEEF026C000F027C001F0026A036AC2
:100D6000060E0026000E01220222032200C03BF3E1
:100D700001C03CF30C0156515A25006E57515B21BE
:100D8000016E00C0F3FFF46E12006FC3E6FF70C384
:100D9000E6FFD6ECD9F0E552E552F3CF66F3F4CF97
:100DA00067F36FC364F370C365F36EC363F350DE20
:100DB00003016F51F324006E7051F420016E00C0E6
:100DC000F3FFF46E120072C3E6FF73C3E6FF74C351
:100DD000E6FFE4ECD9F0E552E552E55227C06CF3AA
:100DE00028C06DF372C369F373C36AF374C36BF302
:100DF00071C368F3FADE056A03017251F324006ED1
:100E00007351F420016E74510520026E00C027F06A
:100E100001C028F0296E120003017551006E016AAD
:100E2000090E005C000E015803E3F36AF46A120035
:100E300075C345F3CAEC00F0030129512B5D0C0189
:100E4000026F03012A512C590C01036F010E025F3E
:100E5000000E035B75C360F33CDD0C01F350025DD3
:100E6000006E0351F454016E00C0F3FFF46E1200E3
:100E700076C377F318D8F3CF00F0F4CF01F0F35036
:100E8000F41010E076C345F3CAEC00F033C335F339
:100E900034C336F30301010EAE6F0301100EAD6FC4
:100EA00088EC11F0120003017751006E016A090EFF
:100EB000005C000E015803E3F36AF46A120077C382
:100EC00045F3CAEC00F003013551335D3651345916
:100ED00006E33551335D006E3451365515D035512A
:100EE0002D5D026E2E513655036E010E0226000E48
:100EF00003222B51335D046E34512C55056E025084
:100F00000424006E03500520016E00C0F3FFF46E50
:100F1000120078C377F3C7DFF3CF44FCF4CF45FC6E
:100F20000C01F350F41001E1000C78C345F3CAEC56
:100F300000F0030179517A1112E0010E0301C56F2F
:100F4000C66B44C3C4F335C3C2F336C3C3F3030152
:100F5000C16F79C3BFF37AC3C0F320EC21F0030162
:100F6000352B000E362335512D5D36512E5904E2B6
:100F70002BC335F32CC336F30C01010E441905E1E4
:100F8000455103E103014185010C030140BB13D02E
:100F9000408B80ECEEF026C000F027C001F0026A22
:100FA000036A1F0E0026000E01220222032200C047
:100FB0003BF301C03CF3010C0C01466B476B7BC358
:100FC00077F371DFF3CF44FCF4CF45FC0C01F35011
:100FD000F41003E1F36AF46A12007BC345F3CAEC30
:100FE00000F003017E510C01445D03017F510C01AF
:100FF000455904E244CC7EF345CC7FF303013551DF
:101000007E25006E36517F21016E00502D5D01500E
:101010002E5938E235512D5D0C01466F03013651D2
:101020002E590C01476F010E4627000E472303017E
:101030007C517D111BE046CCC5F347CCC6F344C3BD
:10104000C4F335C3C2F336C3C3F30301010EC16F4A
:101050007CC3BFF37DC3C0F320EC21F00C014651EB
:1010600003017C270C01475103017D230C014651EC
:1010700003017E5F0C01475103017F5B2BC335F3F6
:101080002CC336F37C517D1113E07EC3C5F37FC3BF
:10109000C6F344C3C4F335C3C2F336C3C3F3030179
:1010A000010EC16F7CC3BFF37DC3C0F320EC21F000
:1010B00003017E5135277F5136230C014651030130
:1010C0007E270C01475103017F237E510C01445DB3
:1010D000006E455103017F55016E00507E5D015049
:1010E0007F5902E3418515D040BB13D0408B80EC83
:1010F000EEF026C000F027C001F0026A036A1F0E5E
:101100000026000E01220222032200C03BF301C090
:101110003CF37EC3F3FF7FC3F4FF12000301805151
:10112000006E016A090E005C000E015803E3F36AC9
:10113000F46A120080C345F3CAEC00F003012B519E
:101140002D5D0C01466F03012C512E590C01476F88
:1011500080C377F3A8DE0C01F350465D006E475163
:10116000F454016E00C0F3FFF46E120003018151CC
:10117000006E016A090E005C000E015803E2845102
:10118000851103E1F36AF46A120081C345F3CAECE6
:1011900000F081C377F387DEF3CF02FCF4CF03FCCA
:1011A000030186518425006E87518521016E0C0153
:1011B0000050F35C0150F4580BE2030186510C011E
:1011C000025D0301846F87510C0103590301856F90
:1011D0000301355186250C01006F0301365187212B
:1011E0000C01016F005103012D5D0C010151030140
:1011F0002E590FE22B512D5D006E2E512C55016E94
:10120000010E0026000E012200500C01005F01506B
:10121000015B0C01005103012D5D0C01046F0151B4
:1012200003012E590C01056F010E0427000E052342
:10123000030184510C01045D030185510C01055922
:1012400012E384C3C5F385C3C6F344C3C4F300CC1F
:10125000C2F301CCC3F30301010EC16F82C3BFF31C
:1012600083C3C0F334D004CCC5F305CCC6F344C368
:10127000C4F300CCC2F301CCC3F30301010EC16F70
:1012800082C3BFF383C3C0F320EC21F00C010451EF
:101290000301845D0301C56F0C01055103018559EC
:1012A0000301C66F44C3C4F32BC3C2F32CC3C3F3FF
:1012B0000301010EC16F030182510C0104250301DA
:1012C000BF6F030183510C0105210301C06F20ECA6
:1012D00021F084C3F3FF85C3F4FF120089C386F3B2
:1012E0008AC387F3010E0301846F856B0301060E29
:1012F000826F0C0E836F88C381F338DF0C010651B7
:10130000120003018B51006E016A090E005C000E91
:10131000015803E28E518F1103E1F36AF46A12005F
:101320008BC345F3CAEC00F08BC377F3BCDD03013C
:101330009051F35C0C01466F03019151F4580C017C
:10134000476F03018E510C01465D03018F510C0163
:10135000475901E272D10301925193110DE00C0142
:1013600046510301925D0C0147510301935904E278
:1013700092C346FC93C347FC355190250C014A6F3C
:101380000301365191210C014B6F4A5103012D5D30
:101390000C014B5103012E590FE22B512D5D006EB4
:1013A0002E512C55016E010E0026000E0122005018
:1013B0000C014A5F01504B5B4ACC44FC4BCC45FCD2
:1013C0000C014A5103012D5D0C01486F4B51030183
:1013D0002E590C01496F010E4827000E492390C376
:1013E0004AFC91C34BFC8EC34CFC8FC34DFC8CC399
:1013F0004EFC8DC34FFC03018CC3E9FF8DC3EAFF94
:101400008C2B8D23EFCF51FC0C01536B03019451B6
:1014100009E0610E0C01515D05E351517A0802E3C8
:10142000E00E51270C01200E526FE850485D000E6F
:10143000495902E248CC52FC5251465D000E4759D0
:1014400002E246CC52FC52510301C56FC66B44C345
:10145000C4F344CCC2F345CCC3F30301010EC16F06
:101460000301540EBF6F0C0EC06F20EC21F00C0175
:101470005251006E016A00504427015045235251D9
:10148000006E016A0050485F0150495B48514911A4
:1014900006E12BC344FC2CC345FC486949690301A0
:1014A000945169E00C01506B5251505D01E3B4D08E
:1014B0005051EA6A540FE96E0C0EEA22EFCF00F0A9
:1014C000610E005C13E35051EA6A540FE96E0C0E92
:1014D000EA22EF507A080AE3E00E006E5051EA6A01
:1014E000540FE96E0C0EEA220050EF265051EA6AC2
:1014F000540FE96E0C0EEA22EF50515D1CE103011E
:101500008E07000E8F5B8E518F114AE08CC3E9FF6E
:101510008DC3EAFF8C2B000E8D23EFCF51FC0C0105
:10152000010E536F610E515D24E351517A0821E39E
:10153000E00E51271ED04CCC8EF34DCC8FF353517F
:1015400018E04ECC8CF34FCC8DF303014ECCE9FF69
:101550004FCCEAFF8C2B000E8D23EFCF51FC610E98
:101560000C01515D05E351517A0802E3E00E512769
:10157000536B502B99D70C01506B5251505D4CE27C
:101580005051EA6A540FE96E0C0EEA22EF50515D99
:101590002BE103018E07000E8F5B8E518F1117E137
:1015A0000C014C514A5D026E4B514D55036E50512A
:1015B00000010224006E000E0320016E010E0026C1
:1015C000000E012200C0F3FF01C0F4FF12008CC323
:1015D000E9FF8DC3EAFF8C2B000E8D23EFCF51FC6A
:1015E0000C01010E536F16D04CCC8EF34DCC8FF303
:1015F000535110E04ECC8CF34FCC8DF303014ECC05
:10160000E9FF4FCCEAFF8C2B000E8D23EFCF51FC6E
:101610000C01536B502BB1D70C015251006E016A73
:101620000050465F0150475B03018E510C01465D3F
:1016300003018F510C01475903E2F368F46812006B
:101640005251006E016A00504A2701504B23EAD6DE
:1016500003019551006E016A090E005C000E0158ED
:1016600003E299519A1103E1F36AF46A120095C3F7
:1016700045F3CAEC00F095C377F315DC03019B51E9
:10168000F35C0C01466F03019C51F4580C01476F49
:10169000030199510C01465D03019A510C01475910
:1016A00001E28CD103019D519E110DE00C014651C8
:1016B00003019D5D0C01475103019E5904E29DC346
:1016C00046FC9EC347FC35519B250C014A6F030124
:1016D00036519C210C014B6F4A5103012D5D0C01C9
:1016E0004B5103012E590FE22B512D5D006E2E51EF
:1016F0002C55016E010E0026000E012200500C0137
:101700004A5F01504B5B4ACC44FC4BCC45FC0C017E
:101710004A5103012D5D0C01486F4B5103012E59B5
:101720000C01496F010E4827000E49239BC34AFC58
:101730009CC34BFC99C34CFC9AC34DFC96C34EFC16
:1017400097C34FFC98C350FC030196C3F6FF962B3A
:1017500097C3F7FF972398C3F8FF98230800F5CFA6
:1017600052FC0C01546B03019F5109E0610E0C0106
:10177000525D05E352517A0802E3E00E52270C0154
:10178000200E536FE850485D000E495902E248CCE4
:1017900053FC5351465D000E475902E246CC53FCC0
:1017A00053510301C56FC66B44C3C4F344CCC2F3A9
:1017B00045CCC3F30301010EC16F0301550EBF6F8A
:1017C0000C0EC06F20EC21F00C015351006E016A29
:1017D00000504427015045235351006E016A0050C8
:1017E000485F0150495B4851491106E12BC344FC55
:1017F0002CC345FC4869496903019F5173E00C0102
:10180000516B5351515D01E3C8D05151EA6A550FF4
:10181000E96E0C0EEA22EFCF00F0610E005C13E3DC
:101820005151EA6A550FE96E0C0EEA22EF507A0820
:101830000AE3E00E006E5151EA6A550FE96E0C0E94
:10184000EA220050EF265151EA6A550FE96E0C0E5C
:10185000EA22EF50525D20E103019907000E9A5BE6
:1018600099519A1154E096C3F6FF962B97C3F7FF50
:10187000000E972398C3F8FF98230800F5CF52FC79
:101880000C01010E546F610E525D2AE352517A0829
:1018900027E3E00E522724D04CCC99F34DCC9AF399
:1018A00054511EE04ECC96F34FCC97F350CC98F3A6
:1018B00003014ECCF6FF962B4FCCF7FF000E97237B
:1018C00050CCF8FF98230800F5CF52FC610E0C01B4
:1018D000525D05E352517A0802E3E00E5227546B41
:1018E000512B8FD70C01516B5351515D56E2515121
:1018F000EA6A550FE96E0C0EEA22EF50525D2FE1B5
:1019000003019907000E9A5B99519A1117E10C0196
:101910004C514A5D026E4B514D55036E51510001C1
:101920000224006E000E0320016E010E0026000E40
:10193000012200C0F3FF01C0F4FF120096C3F6FFBE
:10194000962B97C3F7FF000E972398C3F8FF9823B1
:101950000800F5CF52FC0C01010E546F1CD04CCC8A
:1019600099F34DCC9AF3545116E04ECC96F34FCCEC
:1019700097F350CC98F303014ECCF6FF962B4FCC47
:10198000F7FF000E972350CCF8FF98230800F5CFFF
:1019900052FC0C01546B512BA7D70C015351006E14
:1019A000016A0050465F0150475B030199510C01E9
:1019B000465D03019A510C01475903E2F368F4684C
:1019C00012005351006E016A00504A2701504B2308
:1019D000D6D6A6C394F3A4C392F3A5C393F3A2C32C
:1019E00090F3A3C391F3010E03018E6F8F6B03017C
:1019F000A10E8C6F030E8D6FA0C38BF381EF09F0E6
:101A00000C01006B0051006E016A090E005C000EB3
:101A1000015801E33ED300CC45F3CAEC00F00C01C1
:101A2000036B016B026B03014151020B03E1415156
:101A3000040B0EE0BDECB2F000090AE00C01100E40
:101A4000036F03014151040B01E0010E0C01016F12
:101A5000030140AB13D080ECEEF0030126503B5D58
:101A6000006E27503C59016EE83404E20050000833
:101A7000000E015403E30C01100E036F030140AD8F
:101A800013D080ECEEF0030126503D5D006E275030
:101A90003E59016EE83404E200500008000E015483
:101AA00003E30C01100E036F0B0E03013F5D16E103
:101AB00080ECEEF0030126503D5D006E27503E594C
:101AC000016EE83404E200500008000E015406E301
:101AD0000C01110E036F03010C0E3F6F040E3F5DEE
:101AE00001E009D10C01046B056B030E045D000ECF
:101AF000055901E300D104CCE9FF05CCEAFF140E3F
:101B0000EA02F3CFEAFFE902F3CFE9FFF450EA2655
:101B1000000EE926080EEA22100EE926000EEA223F
:101B2000EE50ED1001E1E7D004CCE9FF05CCEAFF6F
:101B3000140EEA02F3CFEAFFE902F3CFE9FFF45013
:101B4000EA26000EE926080EEA22100EE926000E0B
:101B5000EA22EECF00F0EFCF01F00301425100186E
:101B600001E0C4D04351011801E0C0D011EC01F0F4
:101B70000A0EE66EE66A04CCE9FF05CCEAFF140E15
:101B8000EA02F3CFEAFFE902F3CFE9FFF450EA26D5
:101B9000000EE926080EEA22E9CF00F0EACF01F0B4
:101BA000E9CFE6FFEACFE6FF180EE66E030EE66E1B
:101BB000E0ECD8F0060EE15E04CCE9FF05CCEAFFCC
:101BC000140EEA02F3CFEAFFE902F3CFE9FFF45083
:101BD000EA26000EE926080EEA220A0EE926000E81
:101BE000EA22EECF10F3EDCF11F304CCE9FF05CCE0
:101BF000EAFF140EEA02F3CFEAFFE902F3CFE9FFAE
:101C0000F450EA26000EE926080EEA220C0EE92618
:101C1000000EEA22EECF0AF3EECF0BF3EECF0CF379
:101C2000EFCF0DF303010A2B0B230C230D231A51C5
:101C30001825026E1B511921036E02501025006EEB
:101C400003501121016E00501219426F01501319F7
:101C5000436F0C01120E036F0301060E3F6F04CC9D
:101C6000C5F305CCC6F30301020ED880C557000E9C
:101C7000C657140EC603F3CFC6F3C503F3CFC5F39F
:101C8000F450C6270301010EC46F0C0104250301A3
:101C9000C26F000E0C0105210301C36F140EC303B4
:101CA000F3CFC3F3C203F3CFC2F3F450C327000E44
:101CB000C227080EC3230301010EC16F140E286E44
:101CC000296A04CC2DF005CC2EF0A9ECB8F026C082
:101CD000BFF327C0C0F3000E0301BF27080EC023C7
:101CE00020EC21F00801386B396B05D00C01042B76
:101CF000000E0523FAD60C0103510AE0015102E05F
:101D0000000E01D0010E0301AE6F03CCADF300DB7A
:101D1000030140B950D0070E3F5D01E0B7D16EEC32
:101D2000EEF003013751265C006E38512758016EE2
:101D300039512858026E3A512958036E0001800E1D
:101D4000031401E0A3D103014051070B060816E17B
:101D50004051080B01E0010E0C01036F00CC50F361
:101D6000A9EC03F000CC50F3A9EC03F00C010351F3
:101D700001E08CD103010E0E3F6F88D111EC01F010
:101D80000301020EAE6F0301100EAD6FC1DA6EECEF
:101D9000EEF026C037F327C038F328C039F329C046
:101DA0003AF3740E03013727350E3823060E392314
:101DB000000E3A236BD16EECEEF003013751265C36
:101DC000006E38512758016E39512858026E3A5129
:101DD0002958036E0001800E031401E057D111EC65
:101DE00001F003013F510C0A01E1F3D0060A01E1C1
:101DF000EAD0030A01E1F6D0010A01E1E0D00F0ABE
:101E000001E1D4D00C0A01E1D1D00D0A01E1C3D027
:101E1000030A01E1ADD0060A01E17BD0010A69E0C5
:101E2000030A21E0010A01E0E2D0F3ECA8F0000986
:101E300001E1DDD00301010E3F6F24A50BD00701A6
:101E4000EE6F18C3EBF719C3ECF71AC3EDF72AECE2
:101E5000A9F0CDD00701EA6F18C3E8F719C3E9F775
:101E60000AECA9F0C4D00701060EEF6F0C0EF06F5C
:101E70004DECA9F0000901E1BAD0F8ECA8F0000996
:101E800023E006CC18F307CC19F308CC1AF309CCDD
:101E90001BF30301020E3F6F1A511825026E1B51EE
:101EA0001921036E02501025006E03501121016E9E
:101EB00000501219426F01501319436F276B270E00
:101EC000026F036B046B65D06EECEEF026C037F347
:101ED00027C038F328C039F329C03AF3740E030140
:101EE0003727350E3823060E3923000E3A233F6B71
:101EF0007ED080ECEEF026C03BF327C03CF305011A
:101F0000180EF76F030EF86F52ECCFF00301030EBB
:101F10002DD005011C0EFB6F030EFC6F0501180E82
:101F2000F96F030EFA6F96ECCFF0000919E180EC1F
:101F3000EEF003013B51265C006E3C512758016EC8
:101F40000050025D0150035952E2060E275D06E281
:101F5000272BD8900237033704370537020E06D0F7
:101F60000C01020E036F016B0301050E3F6F3FD0A2
:101F70000C01020E036F010E016F040E0301275DB9
:101F800036E3040E276F200E026FEF0E036F090E6B
:101F9000046F056B2CD0020E275D03E20C01120EBC
:101FA0001DD040B71FD00C01020E07D0050E275DD3
:101FB0000DE3080E3F6F0C01110E036F18D0050ED4
:101FC000275D10E209D0050E275D0CE20C01100E12
:101FD00005D0050E275D06E20C01110E036F010E00
:101FE000016F05D00C01140E036F010E026F0C017E
:101FF000035147E001513FE00301272BD8900237FE
:1020000003370437053731510E5D0C01046F0301AE
:1020100032510F590C01056F030131510E5D3251E0
:102020000F590BE229512B5D006E2C512A55016E80
:1020300000500C0104270150052304CC00F005CC0E
:1020400001F0026A036A00500301065F0150075B5A
:102050000250085B0350095B0C0104510301142773
:102060000C0105510301152331C30EF332C30FF3E5
:102070000301AE6B03D00301010EAE6F03CCADF3D1
:1020800047D90C01025102E09FEC17F00C01002B24
:10209000B9D4046B056B030E045D000E055901E312
:1020A00099D004CCE9FF05CCEAFF140EEA02F3CF85
:1020B000EAFFE902F3CFE9FFF450EA26000EE92631
:1020C000080EEA22100EE926000EEA22EE50ED106C
:1020D00001E1120004CCE9FF05CCEAFF140EEA028C
:1020E000F3CFEAFFE902F3CFE9FFF450EA26000E4E
:1020F000E926080EEA22120EE926000EEA22EECFA9
:1021000002F0EFCF03F002C0E6FF03C0E6FF80EC71
:10211000EEF0E552E7CF03F0E552E7CF02F00250D0
:10212000265C006E03502758016EDC0ED8800054E8
:10213000010E01544AE204CCC5F305CCC6F30301F9
:10214000020ED880C557000EC657140EC603F3CF33
:10215000C6F3C503F3CFC5F3F450C6270301010E40
:10216000C46F0C0104250301C26F000E0C01052190
:102170000301C36F140EC303F3CFC3F3C203F3CF42
:10218000C2F3F450C327000EC227080EC323030175
:10219000010EC16F140E286E296A04CC2DF005CCF7
:1021A0002EF0A9ECB8F026C0BFF327C0C0F3000E94
:1021B0000301BF27080EC02320EC21F00801386B73
:1021C000396B0C010407000E055B0C01042B000E9B
:1021D000052361D71200A7C3E9FFA8C3EAFFEECF2A
:1021E00014FCEECF15FCEECF16FCEFCF17FCA9C305
:1021F000E9FFAAC3EAFFEECF18FCEECF19FCEECF41
:102200001AFCEFCF1BFC0C011C6B060E1D6FABC341
:102210001EFCACC31FFCABC32AF7ACC32BF7E0EC2E
:1022200096F0F3CF1EFCF4CF1FFC0C0E0701326FAB
:10223000336B0701140E306F0C0E316FFBEC96F010
:10224000F3CF20FCF4CF21FC0C01201F211FABC3D6
:10225000C9F8ACC3CAF892ECB4F0F3CF22FCF4CFC7
:1022600023FC0C01F350201950E1235121194DE1B9
:102270000901866B876BAFECDFF0140E0801D36F9A
:10228000D46B0801000ED16F0C0ED26FF8ECB5F0D4
:102290000301000EB36F0C0EB46FC4EC16F00C010A
:1022A0000C51F00BE842E842E842E842040DF350DA
:1022B000006E016A140E005E000E015A00C024FC7C
:1022C0000050006E016AE8500301AB5DAB6F015036
:1022D000AC59AC6F140EAB5F000EAC5BA7C3B1F38F
:1022E000A8C3B2F30301000EAF6F0C0EB06FD1DACA
:1022F00000090BE0ABC3B7F3ACC3B8F30301000EA6
:10230000B56F0C0EB66F5AEC18F0D6ECB2F0010CAB
:1023100011EC01F00301ADA102D04187AD91409BCA
:10232000409D409F419341954191BDECB2F0000921
:10233000FCE0060E0301AD1504E00C01A86BA96BCF
:10234000FBD00E512F1907E10F51301904E10C0198
:10235000A86BA96BD9D02F510E5D30510F593FE2B8
:102360000E512F5D0C01A86F03010F5130590C0164
:10237000A96FA8510301145D0C01A951030115595E
:1023800004E214C3A8FC15C3A9FC0C01A851030165
:10239000255D0C01A9510301265905E225C3A8FCBE
:1023A00026C3A9FC4185A8CCC5F3A9CCC6F344C378
:1023B000C4F30EC3C2F30FC3C3F30301C16B030124
:1023C000070EBF6F0A0EC06F20EC21F00C01A85160
:1023D00003010E270C01A95103010F2395D00E51C3
:1023E0002B5D0C01A66F03010F512C590C01A76F37
:1023F000A65103012F25006E0C01A75103013021C6
:10240000016E2951005C0C01A86F03012A5101588B
:102410000C01A96FA8510301145D0C01A95103011E
:10242000155904E214C3A8FC15C3A9FC0C01A8515A
:102430000301255D0C01A9510301265905E225C3BD
:10244000A8FC26C3A9FC41850C01A651A85DA75193
:10245000A95904E2A8CCA6FCA9CCA7FCA6CCC5F33C
:10246000A7CCC6F344C3C4F30EC3C2F30FC3C3F374
:102470000301C16B0301070EBF6F0A0EC06F20EC92
:1024800021F00C01A651A85DA66FA751A959A76F0D
:10249000A651A71122E0A6CCC5F3A7CCC6F344C32E
:1024A000C4F329C3C2F32AC3C3F30301C16B0301FD
:1024B0000E512B5D006E2C510F55016E026A036A9E
:1024C000070E00260A0E0122000E0222032200C07F
:1024D000BFF301C0C0F320EC21F00C01A8510301AF
:1024E0000E270C01A95103010F232B510E5D2C5116
:1024F0000F590AE329512B5D006E2C512A55016EAC
:1025000000500E5F01500F5B030141A715D014511D
:102510000C01A81904E1030115510C01A9190CE0E3
:10252000030125510C01A81904E1030126510C01F6
:10253000A91902E00301AD810C01A851A91104E120
:10254000030E0301AD1529E00C01A8510301145F2E
:102550000C01A9510301155B0C01A851A91102E05E
:102560000301AD870301AEA107D0276BF20E026F06
:102570009E0E036F046B056B6EECEEF026500301AC
:102580000225376F27500321386F28500421396FF7
:10259000295005213A6F408936D0AEA319D0400E9C
:1025A000E96E030EEA6EEF50070BE82AE850070BBE
:1025B000F36EF46EF80EEF14F310EF6E0607000ED4
:1025C000075B085B095B010E0C01A86FA96B1BD0B0
:1025D00040A919D0AEB108D0275106E02707D890FE
:1025E00005330433033302336EECEEF0265003015F
:1025F0000225376F27500321386F28500421396F87
:10260000295005213A6F12C384FC13C385FC10C303
:1026100086FC11C387FC06C388FC07C389FC08C37A
:102620008AFC09C38BFC0AC38CFC0BC38DFC0CC356
:102630008EFC0DC38FFC0C01909190939095909718
:10264000ADC391FC966B976BA851030106270C0153
:10265000A95103010723000E08230923ADA315D0B8
:10266000ADB905D00C018C6B8D6B8E6B8F6B03013C
:1026700024A306D00C018807895B8A5B8B5B05D09D
:10268000062B07230823092324830301ADB12481EA
:102690003551335D3651345914E32B512D5D006EA5
:1026A0002E512C55016E3551335D026E3451365525
:1026B000036E0C010250005C926F03500158936F3F
:1026C0000DD03351355D0C01926F030134513659F1
:1026D0000C01936F010E925F000E935B0CECB3F054
:1026E000F3CF82FCF4CF83FC0C01400EF35C000EB0
:1026F000F45803E2826B836B04D0400E825F000EBD
:10270000835B9251825D9351835904E282CC92FCA7
:1027100083CC93FC0301840EB36F0C0EB46F34DBD7
:10272000140E0C01A827000EA9239089909B908D70
:10273000909F0301ADA326D0040E0C01A827000E24
:10274000A923020E986F040E996F020E9A6F180E4D
:102750009B6F010E006E900EE96E0C0EEA6EEF504C
:10276000F00BE842E842E842E84200240F0BF36E27
:10277000F46EF346F346F346F3460F0EEF14F310F0
:10278000EF6EF45053C69CFC54C69DFC55C69EFC8F
:1027900056C69FFC18C3A0FC19C3A1FC1AC3A2FC17
:1027A0001BC3A3FC0C01A46B060EA56FA8CCA6FC52
:1027B000A9CCA7FCA8CC2AF7A9CC2BF7E0EC96F083
:1027C000F3CFA6FCF4CFA7FC0C0E0701326F336BDE
:1027D00007019C0E306F0C0E316FFBEC96F0F3CFBF
:1027E00094FCF4CF95FC0C01941F951F0801DF0E9B
:1027F000C16F090EC26F41ECB4F0A8CC84F9A9CC2A
:1028000085F90901060E836F0901180E816F030E09
:10281000826F3CECDFF0140E0801D86FD96B080111
:10282000840ED66F0C0ED76F2EECB6F00301ADA35D
:102830000BD0040E0801D86FD96B0801980ED66F23
:102840000C0ED76F2EECB6F00801F30EC36F090E15
:10285000C46F4EECB4F0A8CCC9F8A9CCCAF892EC7D
:10286000B4F0F3CF82FCF4CF83FC0801030EC16FF8
:102870000A0EC26F41ECB4F0020E0801D86FD96B9A
:102880000801820ED66F0C0ED76F2EECB6F007EF54
:10289000B4F0AFC3E9FFB0C3EAFF020EE926000EB1
:1028A000EA22EE50ED1001E1000C0C01FE0E266F45
:1028B000B1C3E9FFB2C3EAFF020EE926000EEA2225
:1028C000EECF04F0EFCF05F0B1C3E9FFB2C3EAFFEA
:1028D0000450EE24026E0550EE20036EAFC3E9FFF4
:1028E000B0C3EAFF0250EE24006E0350EE20016EEA
:1028F000AFC3E9FFB0C3EAFF020EE926000EEA22E9
:102900000050EE18276F0150EE18286F256B2551E7
:10291000006E016A090E005C000E015862E225CCCF
:1029200045F3CAEC00F00D0E03013F5D57E0040EC5
:102930003F5D15E1AFC3E9FFB0C3EAFF020EE92630
:10294000000EEA22EECF00F0EFCF01F00050421966
:1029500045E10150431942E125CC26FC3FD00C0152
:102960002751030142193AE10C012851030143198F
:1029700035E111EC01F0AFC3E9FFB0C3EAFF020E8D
:10298000E926000EEA22EECF00F0EFCF01F00301BE
:102990001251001823E11351011820E1AFC3E9FFE0
:1029A000B0C3EAFFEECF02F0EFCF03F010510218F0
:1029B00015E11151031812E1B1C3E9FFB2C3EAFFF7
:1029C000EE5018190BE1EE50191908E1EE501A19E2
:1029D00005E1EE501B1902E101E1010C0C01252B70
:1029E00096D7FE0E265D38E026CC45F3CAEC00F003
:1029F00011EC01F0FE0E0C01265D2EE027CC42F317
:102A000028CC43F30A0EE66EE66AB1C3E6FFB2C312
:102A1000E6FF180EE66E030EE66EE0ECD8F0006EF0
:102A2000060EE15E0050AFC3E9FFB0C3EAFFEECF90
:102A300010F3EDCF11F3AFC3E9FFB0C3EAFF020E0D
:102A4000E926000EEA22EECF12F3EDCF13F329C3ED
:102A50000EF32AC30FF3010CAFC3E9FFB0C3EAFFC3
:102A60000D0EE926000EEA22EF50020B01E1000CE8
:102A700008013851391101E0000C0C01296B2A6B57
:102A8000030E295D000E2A5901E39BD029CCE9FFF2
:102A90002ACCEAFF140EEA02F3CFEAFFE902F3CFF1
:102AA000E9FFF450EA26000EE926080EEA22100E8D
:102AB000E926000EEA22EE50ED1001E182D029CC89
:102AC000E9FF2ACCEAFF140EEA02F3CFEAFFE9029B
:102AD000F3CFE9FFF450EA26000EE926080EEA22B9
:102AE000100EE926000EEA22EECF00F0EFCF01F043
:102AF000AFC3E9FFB0C3EAFF020EE926000EEA22E7
:102B0000EECF02F0EFCF03F00250001855E1035072
:102B1000011852E129CCE9FF2ACCEAFF140EEA029F
:102B2000F3CFEAFFE902F3CFE9FFF450EA26000E03
:102B3000E926080EEA220A0EE926000EEA22EECF66
:102B400000F0EFCF01F0AFC3E9FFB0C3EAFFEECF73
:102B500002F0EFCF03F0025000182EE103500118ED
:102B60002BE1B1C3E9FFB2C3EAFFEECF00F0EECF35
:102B700001F0EECF02F0EFCF03F029CCE9FF2ACC31
:102B8000EAFF140EEA02F3CFEAFFE902F3CFE9FF0E
:102B9000F450EA26000EE926080EEA22EE50000163
:102BA000001808E1EE50011805E1EE50021802E1AC
:102BB000EE50031801E1C6D00C01292B000E2A2388
:102BC0005FD7256B2551006E016A090E005C000E6F
:102BD000015801E3D8D025CC45F3CAEC00F003013D
:102BE00040A7CED011EC01F0AFC3E9FFB0C3EAFFBC
:102BF000020EE926000EEA22EECF00F0EFCF01F040
:102C000000500301121901E0BBD00150131901E07B
:102C1000B7D00A0EE66EE66AB1C3E6FFB2C3E6FFBE
:102C200029CCE9FF2ACCEAFF140EEA02F3CFEAFF2F
:102C3000E902F3CFE9FFF450EA26000EE926080E78
:102C4000EA22E9CF00F0EACF01F0E9CFE6FFEACFD0
:102C5000E6FFE0ECD8F0026E060EE15E0250AFC374
:102C6000E9FFB0C3EAFFEECF00F0EFCF01F029CCCF
:102C7000E9FF2ACCEAFF140EEA02F3CFEAFFE902E9
:102C8000F3CFE9FFF450EA26000EE926080EEA2207
:102C90000A0EE926000EEA2200C0EEFF01C0EDFF99
:102CA000AFC3E9FFB0C3EAFF040EE926000EEA2233
:102CB000EECF00F0EECF01F0EECF02F0EFCF03F059
:102CC00029CCE9FF2ACCEAFF140EEA02F3CFEAFF8F
:102CD000E902F3CFE9FFF450EA26000EE926080ED8
:102CE000EA220C0EE926000EEA2200C0EEFF01C027
:102CF000EEFF02C0EEFF03C0EEFFAFC3E9FFB0C3BB
:102D0000EAFF020EE926000EEA22EECF00F0EFCF36
:102D100001F029CCE9FF2ACCEAFF140EEA02F3CF36
:102D2000EAFFE902F3CFE9FFF450EA26000EE926B4
:102D3000080EEA22100EE926000EEA2200C0EEFF7D
:102D400001C0EDFF80ECEEF027C001F029CCE9FFD7
:102D50002ACCEAFF140EEA02F3CFEAFFE902F3CF2E
:102D6000E9FFF450EA26000EE926080EEA22120EC8
:102D7000E926000EEA2226C0EEFF01C0EDFF000C9E
:102D80000C01252B1FD7000CB3C3E9FFB4C3EAFF26
:102D9000EECF2AF7EDCF2BF7E0EC96F0F3CF00F073
:102DA000F4CF01F0B3C3E9FFB4C3EAFFF3CFEEFF02
:102DB00001C0EDFFB3C3E9FFB4C3EAFF020EE92689
:102DC000000EEA22EECF2AF7EDCF2BF7E0EC96F0DB
:102DD000F3CF00F0F4CF01F0B3C3E9FFB4C3EAFFCF
:102DE000020EF3CFEBFF030E01C0EBFFB3C3E9FF0D
:102DF000B4C3EAFF040EE926000EEA22EECF2CF758
:102E0000EECF2DF7EECF2EF7EFCF2FF7E5EC96F0C4
:102E100026C000F027C001F028C002F029C003F04E
:102E2000B3C3E9FFB4C3EAFF040EE926000EEA22A9
:102E300026C0EEFF01C0EEFF02C0EEFF03C0EEFFB2
:102E4000B3C3E9FFB4C3EAFF080EE926000EEA2285
:102E5000EECF2CF7EECF2DF7EECF2EF7EFCF2FF7EB
:102E6000E5EC96F026C000F027C001F028C002F083
:102E700029C003F0B3C3E9FFB4C3EAFF080EE92693
:102E8000000EEA2226C0EEFF01C0EEFF02C0EEFFF8
:102E900003C0EEFFB3C3E9FFB4C3EAFF0E0EE92699
:102EA000000EEA22EECF2AF7EDCF2BF7E0EC96F0FA
:102EB000F3CF00F0F4CF01F0B3C3E9FFB4C3EAFFEE
:102EC0000E0EF3CFEBFF0F0E01C0EBFFB3C3E9FF14
:102ED000B4C3EAFF100EE926000EEA22EECF2AF76D
:102EE000EDCF2BF7E0EC96F0F3CF00F0F4CF01F04C
:102EF000B3C3E9FFB4C3EAFF100EF3CFEBFF110E2B
:102F000001C0EBFFB3C3E9FFB4C3EAFF120EE92629
:102F1000000EEA22EECF2AF7EDCF2BF7E0EC96F089
:102F2000F3CF00F0F4CF01F0B3C3E9FFB4C3EAFF7D
:102F3000120EF3CFEBFF130E01C0EBFF120011ECEA
:102F400001F012C342F313C343F329C32FF32AC37F
:102F500030F329C331F32AC332F32BC333F32CC329
:102F600034F32BC335F32CC336F303014051080B64
:102F700002E0040E01D00D0E3F6F4091409340954A
:102F80004099409B409D409F41914193419541977D
:102F90004189249124932497249929C30EF32AC3A9
:102FA0000FF390EC92F0F3CF06F3F4CF07F390EC2D
:102FB00092F0F3CF08F3F4CF09F3030122692369F8
:102FC000010E146F156B12000C0E0901866F876BD2
:102FD000AFECDFF0F6ECB5F00C01416FF00E4115EF
:102FE000E840E8403F0B006E016A140E005E000EE0
:102FF000015A00C041FC005058E0070E0801D36F91
:10300000D46B0801D16BD26BF8ECB5F00C014151D7
:10301000410700094AE0F6ECB5F00C01426FE850B8
:1030200044E04205F3E0020E425D28E1030E415DFB
:103030003CE3436B446BF6ECB5F00C01426F040EBD
:10304000425D08E1F6ECB5F00C01446FF6ECB5F02A
:103050000C01436F180E435D020E445926E3B40E73
:10306000D8804355050E445504E2B40EF36E050EA8
:103070001FD043CCF3FF44CCF4FF1200020E415D9D
:1030800014E3F6ECB5F00C01426FE850415D0DE33E
:1030900042510801D36FD46B0801D16BD26BF8ECAD
:1030A000B5F00C014251415FB1D7180EF36E020E1C
:1030B000F46E1200B5C3E9FFB6C3EAFF0D0EE926B0
:1030C000000EEA22EFCF33FCB5C3E9FFB6C3EAFF37
:1030D000080EE926000EEA22EECF34FCEECF35FCD6
:1030E000EECF36FCEFCF37FCB5C3E9FFB6C3EAFF3E
:1030F000040EE926000EEA22EECF38FCEECF39FCB2
:10310000EECF3AFCEFCF3BFC03014091409340955A
:1031100040B913D06EECEEF026C037F327C038F379
:1031200028C039F329C03AF3740E03013727350E4E
:103130003823060E3923000E3A233F51050A42E098
:10314000010A08E0B7C33CFCB8C33DFC0C0133A145
:10315000C5D0C1D00C0133B533D033A910D034CC95
:1031600006F335CC07F336CC08F337CC09F303016B
:10317000AE6B0301040EAD6F88EC11F021D033A3C8
:103180001FD038CC0AF339CC0BF33ACC0CF33BCC40
:103190000DF303010A2B000E0B230C230D2314DF68
:1031A000F3CF25F3F4CF26F30301010EAE6F030135
:1031B000120EAD6F88EC11F00301060E3F6F120086
:1031C0009FEF17F00C0133B5120033A932D0340E43
:1031D000E96E0C0EEA6EEE500301061908E1EE509E
:1031E000071905E1EE50081902E1EE50091921E036
:1031F00006C338FC07C339FC08C33AFC09C33BFCCF
:1032000034CC06F335CC07F336CC08F337CC09F3CE
:103210000301010EAE6F0301040EAD6F88EC11F0D7
:1032200038CC06F339CC07F33ACC08F33BCC09F39E
:1032300012000C0133A304EF20F038CC0AF339CC90
:103240000BF33ACC0CF33BCC0DF303010A2B000E2D
:103250000B230C230D23B5C3E9FFB6C3EAFF0E0E03
:10326000E926000EEA22EECF14F3EDCF15F3ACDE23
:10327000F3CF25F3F4CF26F30C0133A920D00301BB
:10328000010EAE6F0301100EAD6F88EC11F003015B
:10329000070E3F6F6EECEEF026C037F327C038F311
:1032A00028C039F329C03AF3740E03013727350ECD
:1032B0003823060E3923000E3A23409912000301E9
:1032C000010EAE6F0301120EAD6F88EC11F0030119
:1032D000060E3F6F12003C2B000E3D2333A303D09C
:1032E0003C2B000E3D2303013551335D36513459DB
:1032F00014E32B512D5D006E2E512C55016E35516E
:10330000335D026E34513655036E0C010250005C81
:10331000316F03500158326F0DD03351355D0C01C0
:10332000316F0301345136590C01326F010E315F98
:10333000000E325B0A0EE96E030EEA6EEE50385D47
:103340002B6FEE5039592C6FEE503A592D6FEE50CD
:103350003B592E6F2BCC2FFC2CCC30FC3E6B3C51C0
:103360003D1101E176D03151321101E18BD0800E57
:103370002E150FE131CC00F032CC01F0026A036A65
:1033800000502B5D01502C5902502D5903502E59DD
:103390003BE33CCC00F03DCC01F0026A036A2B0E0B
:1033A000E96E0C0EEA6EEE500026EE500122EE5051
:1033B0000222EE5003220334000E031809E6D880DF
:1033C000000E0054000E0154000E0254000E03546F
:1033D0001DE23C51315D046E32513D55056E066A69
:1033E000076A05AE02D00668076807502E19E8AED6
:1033F00002D02E3508D02B51045C2C5105582D518C
:1034000006582E51075802E3010E3E6F31CC00F0F2
:1034100032CC01F0026A036A2E510318E8AE02D0E2
:10342000033408D000502B5D01502C5902502D5907
:1034300003502E5927E22F513C25046E30513D2177
:10344000056EE8341FE204500008000E05541AE22D
:1034500017D02B512C112D112E1112E0800E2E158C
:1034600011E131CC00F032CC01F0026A036A005065
:103470002B5D01502C5902502D5903502E5902E258
:10348000010E3E6F3E510BE133B504EF20F0030116
:10349000010EAE6F0301100EAD6F88EF11F0060E36
:1034A000331502E09FEF17F033A9120003013F51DB
:1034B0000C0A01E185D20B0A3EE00F0A3CE0010A4A
:1034C0003AE0020A38E0010A36E00C0A01E097D23D
:1034D000340EE96E0C0EEA6EEE50061908E1EE505D
:1034E000071905E1EE50081902E1EE50091921E033
:1034F00006C338FC07C339FC08C33AFC09C33BFCCC
:1035000034CC06F335CC07F336CC08F337CC09F3CB
:103510000301010EAE6F0301040EAD6F88EC11F0D4
:1035200038CC06F339CC07F33ACC08F33BCC09F39B
:103530001200070E3F6F0E512F5D0C01296F030122
:103540000F5130590C012A6F800E2A150CE003012F
:1035500029512B5D006E2C512A55016E00500C0133
:10356000292701502A2329CC00F02ACC01F0026A35
:10357000036A060EE96E030EEA6EEE500024256F14
:10358000EE500120266FEE500220276FEE500320F0
:10359000286F250EE96E0C0EEA6EEE50345D256F35
:1035A000EE503559266FEE503659276FEE50375989
:1035B000286FE834000E281909E6D880000E25553A
:1035C000000E2655000E2755000E28551AE203015D
:1035D0002451010B0AE0010E0C01251905E12651C9
:1035E00003E1275101E1285107E00301AE6B03011C
:1035F000100EAD6F88EF11F03407000E355B365BAF
:10360000375B030131510E5D006E0F513255016E73
:10361000026A036A01AE02D002680368060EE96E10
:10362000030EEA6E0050EE5C0C01256F0150EE585F
:10363000266F0250EE58276F0350EE58286F030193
:1036400031510E5D32510F5911E229512B5D006E3F
:103650002C512A55016E026A036A00500C01255F45
:103660000150265B0250275B0350285B250EE96E54
:103670000C0EEA6EEE500C01345D256FEE5035599C
:10368000266FEE503659276FEE503759286FE834C1
:10369000000E281909E6D880000E2555000E265583
:1036A000000E2755000E285501E386D0030129514D
:1036B0002B5D006E2C512A55016E026A036A0C01C3
:1036C0002551005C265101582751025828510358B2
:1036D00073E3030124972499419131C329FC32C338
:1036E0002AFC0C012551030131270C01265103014D
:1036F00032230C01295103010E5D0C012A510301F3
:103700000F590BE331510E5D32510F5935E20E5115
:10371000315D006E32510F551FD029512B5D006E67
:103720002C512A55016E0E5100240C01296F030102
:103730000F5101200C012A6F030131510C01295D49
:10374000030132510C012A5917E229510301315D5D
:10375000006E32510C012A55016E00010050030128
:1037600006270001015003010723000E0823092347
:1037700031C30EF332C30FF303012B51315D2C51D2
:1037800032590AE329512B5D006E2C512A55016EE6
:103790000050315F0150325B2B510E5D2C510F599F
:1037A0004AE329512B5D006E2C512A55016E0050C1
:1037B0000E5F01500F5B3FD003010E51311902E142
:1037C0000F51321938E024A735D024A932D0315115
:1037D0000E5D006E0F513255016E026A036A01AE32
:1037E00002D0026803680050065F0150075B025078
:1037F000085B0350095B31510E5D32510F5914E2E1
:1038000029512B5D006E2C512A55016E026A036A04
:1038100001AE02D0026803680050065F0150075BEA
:103820000250085B0350095B31C30EF332C30FF340
:103830004185248924872F51311932E130513219C1
:103840002FE141B715D06EECEEF026C037F327C05C
:1038500038F328C039F329C03AF3740E030137272F
:10386000350E3823060E3923000E3A23409918D01E
:10387000060EE96E030EEA6EEE500C01341910E1EB
:10388000EE5035190DE1EE5036190AE1EE503719B8
:1038900007E106E103012451010B02E04099419741
:1038A000340EE96E0C0EEA6EEE500301065D006EFA
:1038B000EE500759016EEE500859026EEE5009594C
:1038C000036EB5C3E9FFB6C3EAFF0E0EE926000E8C
:1038D000EA220C010050EE5C3F6F0150EE58406F41
:1038E00003011451151106E10C013F51401102E092
:1038F000030141833FCC14F340CC15F3080E0301C0
:103900003F5D2EE1060EE96E030EEA6EEE500C01ED
:10391000341901E074D0EE50351971E1EE503619CA
:103920006EE1EE5037196BE16AE103012451010B9E
:1039300066E06EECEEF026C037F327C038F328C0FF
:1039400039F329C03AF3BA0E030137271A0E382388
:10395000030E3923000E3A234089090E3F6F4FD0E2
:10396000090E3F5D14E10C0133B149D034CC06F3AC
:1039700035CC07F336CC08F337CC09F30301AE6B33
:103980000301140EAD6F88EC11F09FEF17F00A0ED3
:103990003F5D35E1060EE96E030EEA6EEE500C0156
:1039A00034190DE1EE5035190AE1EE50361907E1F0
:1039B000EE50371904E101E027D39FEC17F0120015
:1039C00006C300F007C301F008C302F009C303F007
:1039D000002A000E01220222032200500C01341999
:1039E0000DE1015035190AE10250361907E1035083
:1039F000371904E101E008D39FEC17F012000C0125
:103A000033BB12000B0E03013F5D01E112000A0EF1
:103A10003F5D01E112000C0E3F5D01E11200B75164
:103A2000B81101E14CD20C01303504E22F510008ED
:103A3000000E305501E2E8D0B5C3E9FFB6C3EAFF96
:103A40000C0EE926000EEA22EF50F00BE842E842A5
:103A5000E842E842040DF350006E016A2F51F35C16
:103A60000901866F0C01305101580901876FAFECD5
:103A7000DFF00C012F510301B7270C013051030176
:103A8000B823B7510C01315D0301B8510C01325913
:103A900004E231CCB7F332CCB8F30301B7510A27B3
:103AA000B8510B23000E0C230D233351B725006EA4
:103AB0003451B821016E00502D5D01502E5946E25F
:103AC00033512D5D0C01296F030134512E590C0126
:103AD0002A6F010E2927000E2A2329CCC5F32ACCF0
:103AE000C6F30301C46B0301C269C36944C3C1F3D4
:103AF00033C3BFF334C3C0F3A3DB0C01295103016B
:103B0000B75D0301C56F0C012A510301B8590301C8
:103B1000C66F0301C46B0301C269C36944C3C1F327
:103B20002BC3BFF32CC3C0F38BDB0C012951030162
:103B3000B75D006EB8510C012A55016E03012B517F
:103B40000024336F2C510120346F15D0B7C3C5F357
:103B5000B8C3C6F30301C46B0301C269C36944C39C
:103B6000C1F333C3BFF334C3C0F36ADB0301B751FE
:103B70003327B8513423221D01E1231D01E19FD1D8
:103B8000B751225FB851235B165122250C01296FD2
:103B90000301175123210C012A6F800E2A1502E020
:103BA00003012FD00301233504E222510008000E47
:103BB000235501E284D10C01295103010A270C018C
:103BC0002A5103010B23000E0C230D230C01295154
:103BD000030133270C012A510301342333512D5D96
:103BE00034512E590EE22B512D5D006E2E512C5565
:103BF000016E010E0026000E01220050335F0150BD
:103C0000345B226923695BD1303501E358D12F51F0
:103C10000008000E305501E352D10301B7510C01E9
:103C20002F25006E0301B8510C013021016E0050A8
:103C3000315D0150325909E22F51315D0301B76FF7
:103C40000C01305132590301B86FB5C3E9FFB6C357
:103C5000EAFF0C0EE926000EEA22EF50F00BE842D4
:103C6000E842E842E842040DF3500901866F876B91
:103C7000AFECDFF0030133510C012F25026E03017D
:103C800034510C013021036E02500301B725006E40
:103C90000350B821016E00502D5D01502E596BE28A
:103CA00033512D5D006E2E513455016E010E0026EC
:103CB000000E01220C012F51005C296F3051015878
:103CC0002A6F800E2A1530E129CCC5F32ACCC6F321
:103CD0000301C46B0301C269C36944C3C1F3030197
:103CE00033510C012F250301BF6F030134510C0127
:103CF00030210301C06FA4DA0C0129510301B75D23
:103D00000301C56F0C012A510301B8590301C66FA5
:103D10000301C46B0301C269C36944C3C1F32BC36C
:103D2000BFF32CC3C0F33ED0B7C3C5F3B8C3C6F3CB
:103D30000301C46B0301C269C36944C3C1F3030136
:103D400033510C012F25006E030134510C01302139
:103D5000016E03012B512D5D026E2E512C55036E09
:103D6000010E0226000E032203010250005CBF6F09
:103D70000350015816D0B7C3C5F3B8C3C6F3030147
:103D8000C46B0301C269C36944C3C1F30301335166
:103D90000C012F250301BF6F030134510C013021A9
:103DA0000301C06F4DDA0301221D0BE1231D09E160
:103DB0002FCC22F330CC23F3B7C316F3B8C317F3D9
:103DC0007ED022510C012F5D030123510C0130598B
:103DD0003DE22F510301B725006E0C013051030164
:103DE000B821016E22511625026E23511721036E50
:103DF0000050025C015003580FE30C012F510301E6
:103E0000B725046E0C0130510301B821056E225113
:103E1000045C2351055805E2B7C316F3B8C317F382
:103E200010D022511625006E23511721016E0C016E
:103E30002F51005C0301166F0C0130510158030132
:103E4000176F2FCC22F330CC23F339D02F5103013D
:103E5000B725006E0C0130510301B821016E2251CB
:103E60001625026E23511721036E0050025C01508B
:103E7000035825E222511625006E23511721016EA9
:103E80000C012F51005C3051015819E32F510301EF
:103E9000B725046E0C0130510301B821056E225183
:103EA000045C026E23510558036E1651025C006ECD
:103EB00017510358016E00501627015017230C01AB
:103EC0003C513D1124E0070E03013F5D04E033C384
:103ED00035F334C336F340AF0BD00301010EAE6FA0
:103EE0000301100EAD6F88EC11F011EC01F00FD052
:103EF000408F40BD0CD0408D80ECEEF026C03DF3ED
:103F000027C03EF30F0E03013D27000E3E230C0198
:103F100033A17AD00AC300F00BC301F00CC302F046
:103F20000DC303F0002A000E0122022203223CCC22
:103F300004F03DCC05F0066A076A380EE96E0C0EF7
:103F4000EA6EEE500426EE500522EE500622EE50A8
:103F500007220050041858E10150051855E102509D
:103F6000061852E1035007184FE14EE103010A2BF6
:103F7000000E0B230C230D233F51090A34E0010AE4
:103F80001CE00F0A0CE0010A37E10C0E3F6F030141
:103F9000010EAE6F0301110EAD6F88EF11F00B0E25
:103FA0003F6F80ECEEF026C03DF327C03EF31F0EBE
:103FB00003013D27000E3E231FD0060EE96E030EBF
:103FC000EA6EEE500C0134190AE1EE50351907E1A2
:103FD000EE50361904E1EE50371901E104E0030117
:103FE0000A0E3F6F09D00301AE6B0301100EAD6FD7
:103FF00088EC11F09FEF17F00301010EAE6F030183
:10400000100EAD6F88EC11F012000301B951006E73
:10401000016A090E005C000E015801E3000CB9C3EF
:1040200045F3CAEC00F00301BA51BB1103E1010EE4
:10403000BA6FBB6B29512D5D0C01006F03012A5132
:104040002E590C01016F010E005F000E015B030190
:10405000BA51BC25006EBB51BD21016E0C01005050
:10406000005D0150015901E2000C11EC01F0030E5A
:104070000301BE1502E1030EBE13BCC304FCBDC3A5
:1040800005FCBA51BC25006EBB51BD21016E00502C
:104090000C01005F0150015B0301BEA313D0BEA160
:1040A0000CD000CC00F001CC01F0D89001320032ED
:1040B00000500C010427015004D00C0100510427CA
:1040C00001510523030129510C010425006F03014F
:1040D0002A510C010521016F010E0027000E01235A
:1040E00033C302FC34C303FC0301221D01E1231D81
:1040F00022E022511625006E23511721016E005037
:104100000C01022701500323025103012D5D0C0114
:10411000035103012E590FE22B512D5D006E2E51DC
:104120002C55016E010E0026000E012200500C01DC
:10413000025F0150035B0C0102510301355D0C016C
:104140000351030136590CE20C0100510301355DA6
:104150000C010151030136591DE2BEA513D0000C1C
:1041600035510C01025D030136510C0103590AE27D
:10417000005103012B5D0C01015103012C590AE28E
:10418000BEB5000C00CC35F301CC36F300CC33F3D4
:1041900001CC34F3030135510C01025D03013651AA
:1041A0000C01035930E2040E0301BE152CE02B5123
:1041B0000C01025D0301C56F03012C510C01035971
:1041C0000301C66F44C3C4F32BC3C2F32CC3C3F3B0
:1041D00044C3C1F300CCBFF301CCC0F331D8030119
:1041E0003551335D365134590EE20C010051030153
:1041F0002B5D006E2C510C010155016E0050030126
:10420000335F0150345B00CC2BF301CC2CF329C37A
:104210000EF32AC30FF329C331F32AC332F329C3A0
:104220002FF32AC330F3070E03013F5D08E10301BA
:10423000010EAE6F0301100EAD6F88EC11F0010C92
:104240000301C4512FE0010A01E01200C15116E040
:10425000010A01E01200C5C3E6FFC6C3E6FFC2C300
:10426000E6FFC3C3E6FFBFC3E6FFC0C3E6FFE0EC63
:10427000D8F0006E060EE15E00501200BF1D01E195
:10428000C01D06E0BFC3C1F8C0C3C2F841ECB4F022
:10429000C5C3D8F8C6C3D9F8C2C3D6F8C3C3D7F8C4
:1042A0002EEFB6F0C15117E0010A01E01200C21D65
:1042B00001E1C31D06E0C2C3C3F8C3C3C4F84EEC9A
:1042C000B4F0C5C3D3F8C6C3D4F8BFC3D1F8C0C3D4
:1042D000D2F8F8EFB5F0C5C3CFF8C6C3D0F8C2C363
:1042E000CDF8C3C3CEF8BFC3CBF8C0C3CCF81CEC29
:1042F000B5F0F0ECB5F00009FCE012000301C95183
:1043000018E0010A01E01200CDC3E6FFCEC3E6FFCC
:10431000CAC3E6FFCBC3E6FFCCC3E6FFC7C3E6FFD5
:10432000C8C3E6FF0BECD9F0006E070EE15E00504B
:104330001200C71D01E1C81D06E0C7C3C1F8C8C30C
:10434000C2F841ECB4F0100E0C01546F556B030130
:10435000CD51CE1141E00C0154510301CD5D0C0152
:1043600055510301CE5904E2CDC354FCCEC355FCD4
:1043700054CCE6FF55CCE6FFCAC3E6FFCBC3E6FF4D
:10438000CCC3E6FF440EE66E0C0EE66E0BECD9F0E5
:10439000006E070EE15E005054CCD8F855CCD9F829
:1043A0000801440ED66F0C0ED76F2EECB6F054CC2D
:1043B00000F055CC01F0026A00500301CA270150F9
:1043C000CB230250CC230C0154510301CD5F0C01CF
:0A43D00055510301CE5BBBD712006C
:0643DA002D0E090100197F
:1043E00005E1015103E1025101E1035101E143D231
:1043F0002C0E001905E1015103E1025101E10351C5
:1044000001E137D22B0E001905E1015103E1025100
:1044100001E1035101E12BD22A0E001905E10151FE
:1044200003E1025101E1035101E11BD2290E001900
:1044300005E1015103E1025101E1035101E10FD214
:10444000280E001905E1015103E1025101E1035178
:1044500001E102D2270E001905E1015103E10251E9
:1044600001E1035101E1F6D1260E001905E10151E8
:1044700003E1025101E1035101E1EAD1250E0019E6
:1044800005E1015103E1025101E1035101E1DED1F6
:10449000240E001905E1015103E1025101E103512C
:1044A00001E1D2D1230E001905E1015103E10251CE
:1044B00001E1035101E1C6D1220E001905E10151CC
:1044C00003E1025101E1035101E1BAD1210E0019CA
:1044D00005E1015103E1025101E1035101E1AED1D6
:1044E000200E001905E1015103E1025101E10351E0
:1044F00001E1A2D11F0E001905E1015103E10251B2
:1045000001E1035101E196D11E0E001905E10151AF
:1045100003E1025101E1035101E18AD11D0E0019AD
:1045200005E1015103E1025101E1035101E17ED1B5
:104530001C0E001905E1015103E1025101E1035193
:1045400001E172D11B0E001905E1015103E1025195
:1045500001E1035101E166D11A0E001905E1015193
:1045600003E1025101E1035101E15AD1190E001991
:1045700005E1015103E1025101E1035101E14ED195
:10458000180E001905E1015103E1025101E1035147
:1045900001E13ED1170E001905E1015103E102517D
:1045A00001E1035101E132D1160E001905E101517B
:1045B00003E1025101E1035101E125D1150E00197A
:1045C00005E1015103E1025101E1035101E115D17E
:1045D000140E001905E1015103E1025101E10351FB
:1045E00001E109D1130E001905E1015103E1025166
:1045F00001E1035101E1FCD0120E001905E1015166
:1046000003E1025101E1035101E1F0D0110E001963
:1046100005E1015103E1025101E1035101E1E4D05F
:10462000100E001905E1015103E1025101E10351AE
:1046300001E1D8D00F0E001905E1015103E102514B
:1046400001E1035101E1CCD00E0E001905E1015149
:1046500003E1025101E1035101E1C0D00D0E001947
:1046600005E1015103E1025101E1035101E1B4D03F
:104670000C0E001905E1015103E1025101E1035162
:1046800001E1A8D00B0E001905E1015103E102512F
:1046900001E1035101E199D00A0E001905E1015130
:1046A00003E1025101E1035101E18AD0090E001931
:1046B00005E1015103E1025101E1035101E17ED025
:1046C000080E001905E1015103E1025101E1035116
:1046D0006CE0070E001905E1015103E1025101E10F
:1046E00003515EE0060E001905E1015103E102519C
:1046F00001E1035151E0050E001905E1015103E10B
:10470000025101E1035146E0040E001905E1015197
:1047100003E1025101E103513BE0030E001905E101
:10472000015103E1025101E1035130E0020E001991
:1047300005E1015103E1025101E103511EE0010EC7
:10474000001905E1015103E1025101E1035113E0B8
:10475000005101E092D0015101E08FD0025101E0FF
:104760008CD0035101E089D009018A0E1E6FF50E2D
:104770001F6F000E08D01BEF49F009017F0E1E6F5E
:10478000F50E1F6F000E206F1EEF39F05CEF49F041
:1047900058EF24F007EF46F0010E0E01656F12D0BE
:1047A000010E0E01696F6A6B04D00E01696B6A6BB2
:1047B000010E0E01676F686B03EF47F060EF46F084
:1047C0000E01656B666BB6EF46F00E01636B646BB2
:1047D00077EF46F05CEF47F037EF48F062EF48F0D4
:1047E000C6EF48F0DBEF48F09DEF49F0F5EF4BF0F6
:1047F0000E016F6B05D0010E01D0020E0E016F6F1E
:10480000706B70EF4BF00E01716B05D0010E01D093
:10481000020E0E01716F726B71EF4BF030EF4CF0C6
:10482000F6EF4AF094EF4AF0A9EF4AF0C4EF4AF0ED
:10483000CEEF4AF0D8EF4AF0E2EF4AF0ECEF4AF060
:1048400072EF4BF074EF4BF00CEF4CF0DEEF4BF0EF
:104850008DEF4BF0A4EF4BF00E01736B05D0010E02
:1048600001D0020E0E01736F746B8CEF4BF089EF69
:104870004BF08AEF4BF08BEF4BF0040E03016C6FA3
:104880006D6B03017A0E696FF50E6A6F000E6B6F28
:1048900004018351E96EEA6AD890E936EA367F0E60
:1048A000E926040EEA22EE52EFCF68F3F5EF05F0A9
:1048B00003017E0E626F04018351E96EEA6AD890AB
:1048C000E936EA367F0EE926040EEA22EE52EFCFF1
:1048D00061F3AEEF04F00401836B020E835D5AE2D4
:1048E0008351E96EEA6AD890E936EA367F0EE92606
:1048F000040EEA22EF6A0301080E4D6F500E030109
:104900004B6F4C6B03014A6B0301466B476B486B63
:10491000496BAFEC02F0E66E04018351E96EEA6A7E
:10492000D890E936EA367F0EE926040EEA22EE52E6
:10493000E552E750EF6E1469156983517F0DF3CF8F
:1049400000F0F4CF01F0026A036AFE0E00261E0E8C
:104950000122000E0222032200C0C1F801C0C2F8E9
:1049600041ECB4F0F3CF00FCF4CF01FC7F0E080162
:10497000D86FD96B0801000ED66F040ED76F2EECDE
:10498000B6F000CCC1F801CCC2F841ECB4F004019F
:10499000832BA3D7836B12000C01FC6B020EFC5D12
:1049A00001E384D0FC51E96EEA6AD890E936EA3630
:1049B0007F0EE926040EEA22EE52EF50FE0873E065
:1049C000FC51E96EEA6AD890E936EA367F0EE926AC
:1049D000040EEA22EE52EFCF4EF383EC03F000090F
:1049E0003BE0FCCC04F963D804018351E96EEA6A28
:1049F000D890E936EA367F0EE926040EEA22EF6AFD
:104A0000FF0E145D06E014C4D2F086EC6EF00401D3
:104A10001469FF0E155D06E015C4D2F086EC6EF049
:104A2000040115690301040EBE6F0301BC6BBD6B6D
:104A3000010E0301BA6FBB6B04018351E96EEA6A90
:104A4000D890E936EA367F0EE926040EEA22EE52C5
:104A5000EFCFB9F305EC20F00C01FC51E96EEA6AE6
:104A6000D890E936EA367F0EE926040EEA22EF50A6
:104A700016E1FC51E96EEA6AD890E936EA367F0E13
:104A8000E926040EEA22EE52EFCF77F353EC07F05B
:104A9000F3CF00F0F4CF01F0F350F41004E0FCCCBD
:104AA00004F905D863D80C01FC2B78D71200040157
:104AB00083510901045D01E11200040183517F0D5E
:104AC000F3CF00F0F4CF01F0026A036AFE0E002675
:104AD0001E0E0122000E0222032200C0C1F801C0F6
:104AE000C2F841ECB4F0F3CF00FCF4CF01FC7F0E30
:104AF0000801D86FD96B0801000ED66F040ED76F6E
:104B00002EECB6F000CCC1F801CCC2F841ECB4F008
:104B1000090104517F0DF3CF00F0F4CF01F0026AD8
:104B2000036AFE0E00261E0E0122000E0222032240
:104B300000C0C3F801C0C4F84EECB4F0F3CF00FCE1
:104B4000F4CF01FC7F0E0801D36FD46B0801000E77
:104B5000D16F040ED26FF8ECB5F000CCC3F801CCE5
:104B6000C4F84EECB4F004C983F412000C01010E39
:104B7000CE6F04018351E96EEA6AD890E936EA36CD
:104B80007F0EE926040EEA22EF500B0A02E181EFC4
:104B900030F0010A02E145EF30F0030A02E110EFC4
:104BA00030F0010A02E1E2EF2EF00F0A02E1D8EF45
:104BB0002CF0010A02E1A4EF2CF0030A02E18DEFD0
:104BC0002BF0010A02E17AEF2BF0070A02E13FEF36
:104BD0002BF0010A01E1C1D3030A65E0010A02E0FA
:104BE000AEEF30F08351E96EEA6AD890E936EA36E2
:104BF0007F0EE926040EEA22EE52EFCF77F353EC54
:104C000007F0F3CFC8FCF4CFC9FCF350F41002E175
:104C1000AEEF30F004011A0E106F040E116F8351C5
:104C2000E96EEA6AD890E936EA367F0EE926040E84
:104C3000EA22010EEF6E1769166B6EECEEF026C0DD
:104C400008F427C009F428C00AF429C00BF48A0E1E
:104C500004010827F00E09231B0E0A23000E0B2364
:104C60000C690D690E690F69006B016B026B036BB8
:104C70007E6B0301050EBE6F0301BC6BBD6B010EA5
:104C80000301BA6FBB6B04018351E96EEA6AD890E5
:104C9000E936EA367F0EE926040EEA22EE52EFCF1D
:104CA000B9F305EC20F00301A66B0301A46BA56B1F
:104CB0000301A26BA36B03010A0EA16F04018351D0
:104CC000E96EEA6AD890E936EA367F0EE926040EE4
:104CD000EA22EE52EFCFA0F3E9EC0CF0F3CF00F0B4
:104CE000F4CF01F00001F31C4BE1011C49E1040188
:104CF0008351E96EEA6AD890E936EA367F0EE926F2
:104D0000040EEA22EE52EFCF80F38EEC08F0F3CFE0
:104D100000F0F4CF01F0F350F41011E10401050E9E
:104D2000186F8351E96EEA6AD890E936EA367F0E49
:104D3000E926040EEA22070EEF6E0C01CE6B6EEC34
:104D4000EEF004010851265C006E09512758016EEF
:104D50000A512858026E0B512958036EE834000E90
:104D6000031809E6D880000E0054000E0154000E0E
:104D70000254000E035402E3AEEF30F0CDEF2BF0FF
:104D80006EECEEF026C008F427C009F428C00AF43F
:104D900029C00BF48A0E04010827F00E09231B0E0C
:104DA0000A23000E0B230301A66B0301A46BA56B62
:104DB0000301A26BA36B0301200EA16F04018351B9
:104DC000E96EEA6AD890E936EA367F0EE926040EE3
:104DD000EA22EE52EFCFA0F3E9EC0CF0F3CFC8FCDF
:104DE000F4CFC9FC0C01050ED880F354000EF45426
:104DF00003E2050EC86FC96B010EC82503017E6F63
:104E0000000E0C01C92103017F6F03011A0E7C6F94
:104E1000040E7D6F04018351E96EEA6AD890E93689
:104E2000EA367F0EE926040EEA22EE52EFCF7BF33C
:104E3000DCEC07F0030EE66EE66AA80EE66EEE0EF8
:104E4000E66E000EE66E1A0EE66E040EE66EC1EC1D
:104E5000D8F0006E070EE15E0050000903E1040186
:104E6000186B1CD0040EE66EE66AA30EE66EEE0E1C
:104E7000E66E000EE66E1A0EE66E040EE66EC1ECED
:104E8000D8F0006E070EE15E0050000904E1040155
:104E9000010E186F03D00401070EF5D30301A66BB2
:104EA0000301A46BA56B0301A26BA36B0301200E8E
:104EB000A16F04018351E96EEA6AD890E936EA36B7
:104EC0007F0EE926040EEA22EE52EFCFA0F3E9ECC2
:104ED0000CF0F3CFC8FCF4CFC9FC0301A66BF3CFF1
:104EE000A4F3F4CFA5F30301A26BA36B03013F0E60
:104EF000A16F04018351E96EEA6AD890E936EA3677
:104F00007F0EE926040EEA22EE52EFCFA0F3E9EC81
:104F10000CF0F3CFCAFCF4CFCBFC0C01F350C85D0E
:104F2000F450C95904E3CACCC8FCCBCCC9FC590E17
:104F3000D880C855000EC95501E29FD1C8CC7EF378
:104F4000C9CC7FF303011A0E7C6F040E7D6F040140
:104F50008351E96EEA6AD890E936EA367F0EE9268F
:104F6000040EEA22EE52EFCF7BF3DCEC07F0F3CF36
:104F7000CAFCF4CFCBFC1A0EF324E96E040EF42025
:104F8000EA6EEF6A09011A0E066F040E076FF2EC63
:104F900033F01A0EE66E040EE66ED6ECD9F0E5524A
:104FA000E552F3CFCAFCF4CFCBFC0B0EE66EE66AFB
:104FB000980EE66EEE0EE66E000EE66E1B0EE66EC8
:104FC000040EE66EC1ECD8F0006E070EE15E0050F4
:104FD00000091CE10E011B0E006F040E016FC4ECF2
:104FE00039F00401176F185102E1080E01D0090EC3
:104FF000186F8351E96EEA6AD890E936EA367F0E77
:10500000E926040EEA22020EB4EF2CF0CACCE9FF26
:10501000CBCCEAFFE906000EEA5A1A0EE926040E86
:10502000EA22EF502F0809E000011B0ECB6F040E9F
:10503000CC6F7CEC6BF00401146FFF0E0401145D67
:105040004BE1CACCE9FFCBCCEAFFE906000EEA5AF5
:105050001A0EE926040EEA22EF502F080EE00C018A
:10506000CACCE9FFCBCCEAFFCA2B000ECB231A0E29
:10507000E926040EEA222F0EEF6E8E0EE66EEE0E7D
:10508000E66E000EE66E1A0E0C01CA25006E040EC6
:10509000CB21016E00C0E6FFE66EBDECD9F0026EDA
:1050A000050EE15E02508E0EE66EEE0EE66E000E0E
:1050B000E66EE4ECD9F0E552E552E55227500C01DA
:1050C000CA272850CB2300011B0ECB6F040ECC6FD8
:1050D0007CEC6BF00401146F1A0E0C01CA25CF6F23
:1050E000040ECB21D06F010ECF5F000ED05B1A0EE5
:1050F000CF1902E1040ED01909E0CFCCE9FFD0CCE2
:10510000EAFFEF502E0802E0CF07EFD7CF2B000EBB
:10511000D0230401196B0B0EE76E1919E8AE02D00B
:10512000E73402D0E750195D41E2190E006EE00E3F
:10513000016E010E026E19C403F0046A056A03AE23
:1051400002D004680568030E2C6E2D6A2E6A03C017
:1051500027F004C028F005C029F0C7ECB8F024C03F
:1051600003F025C004F026C005F000502424F36E9F
:1051700001502520F46E02502620F86EF4CFF7FF80
:10518000F3CFF6FF0900F5CF27F70900F5CF28F791
:105190000800F5CF29F7CFCC25F7D0CC26F7A1EC26
:1051A00096F0000903E00401192BB5D70E011B0E80
:1051B000006F040E016FC4EC39F00401176FFF0E8D
:1051C000145D18E014C4EEF0A1EC72F0F350020B81
:1051D00011E014C4F9F0B1EC74F0F3CFD0F0F4CFD7
:1051E000D1F0010E0001D027000ED12302EC6EF0A9
:1051F0000401156F0301A66B0301A46BA56B0301EA
:10520000A26BA36B0301200EA16F04018351E96E11
:10521000EA6AD890E936EA367F0EE926040EEA22D9
:10522000EE52EFCFA0F3E9EC0CF0F3CFC8FCF4CFD3
:10523000C9FCF350F4104BE00401010E166F03019A
:10524000CC0E796F0C0E7A6F04018351E96EEA6A15
:10525000D890E936EA367F0EE926040EEA22EE52AD
:10526000EFCF78F389EC07F00C01C807000EC95B9B
:10527000620EC85D000EC95903E30401050E03D296
:10528000C8CC7EF3C9CC7FF303011A0E7C6F040EE9
:105290007D6F04018351E96EEA6AD890E936EA36F7
:1052A0007F0EE926040EEA22EE52EFCF7BF3DCEC10
:1052B00007F0F35004011027F450112310C4E9FF44
:1052C00011C4EAFF102B000E1123260EEF6E03010E
:1052D000A66B0301A46BA56B0301A26BA36B030177
:1052E0000A0EA16F04018351E96EEA6AD890E9368B
:1052F000EA367F0EE926040EEA22EE52EFCFA0F343
:10530000E9EC0CF0F3CFC8FCF4CFC9FC010EF32498
:1053100003017E6F000EF4207F6F03017C6B7D6BB9
:1053200004018351E96EEA6AD890E936EA367F0EC5
:10533000E926040EEA22EE52EFCF7BF3DCEC07F015
:1053400004018351E96EEA6AD890E936EA367F0EA5
:10535000E926040EEA22020EEF6E0301A66B03019A
:10536000A46BA56B0301A26BA36B03010A0EA16FD3
:1053700004018351E96EEA6AD890E936EA367F0E75
:10538000E926040EEA22EE52EFCFA0F3E9EC0CF08E
:10539000F3CFC8FCF4CFC9FC0C01F31C4AE1C91DD2
:1053A00048E104018351E96EEA6AD890E936EA36A9
:1053B0007F0EE926040EEA22EE52EFCF80F38EEC48
:1053C00008F0F3CF00F0F4CF01F0F350F41011E146
:1053D0000401050E186F8351E96EEA6AD890E93628
:1053E000EA367F0EE926040EEA22070EEF6E0C0164
:1053F000CE6B6EECEEF004010851265C006E095194
:105400002758016E0A512858026E0B512958036E15
:10541000E834000E031809E6D880000E0054000E90
:105420000154000E0254000E035402E3AEEF30F0BC
:10543000B4D16EECEEF026C008F427C009F428C001
:105440000AF429C00BF48A0E04010827F00E092380
:105450001B0E0A23000E0B230C01010EC81926E1B6
:10546000C95124E1020E03017E6F7F6B03017C6B47
:105470007D6B04018351E96EEA6AD890E936EA3619
:105480007F0EE926040EEA22EE52EFCF7BF3DCEC2E
:1054900007F004018351E96EEA6AD890E936EA36EA
:1054A0007F0EE926040EEA22030E5ED20301A66BEC
:1054B000C8CCA4F3C9CCA5F30301A26BA36B030171
:1054C0003A0EA16F04018351E96EEA6AD890E93679
:1054D000EA367F0EE926040EEA22EE52EFCFA0F361
:1054E000E9EC0CF0F3CFCAFCF4CFCBFC020E0C01BC
:1054F000CA27000ECB23CE6B100ED880CA55000EE3
:10550000CB5502E2010E9FD0CACC7EF3CBCC7FF309
:105510000301D10E7C6F0C0E7D6F04018351E96E87
:10552000EA6AD890E936EA367F0EE926040EEA22C6
:10553000EE52EFCF7BF3DCEC07F0CACCE9FFCBCC2B
:10554000EAFFE906000EEA5AD10EE9260C0EEA221D
:10555000EF6A0C01CA51C85FCB51C95BCD6BCD510D
:10556000006E016A030E005C000E015849E28B0ECA
:10557000006EE00E016E010E026ECDCC03F0046AE7
:10558000056A030E2C6E2D6A2E6ACDCC27F004C05E
:1055900028F005C029F0C7ECB8F024C003F025C0FE
:1055A00004F026C005F000502424F36E015025209D
:1055B000F46E02502620F86EF4CFF7FFF3CFF6FF1B
:1055C0000900F5CFE6FF0900F5CFE6FF0800F5CFAB
:1055D000E6FFD10EE66E0C0EE66EA7ECD9F0066E75
:1055E000050EE15E0650000908E1CDCC05F9B8ECE6
:1055F00031F00C01010ECE6F03D00C01CD2BAFD7D3
:10560000CE511FE00301A66B0301A46BA56B030140
:10561000A26BA36B03010A0EA16F04018351E96E13
:10562000EA6AD890E936EA367F0EE926040EEA22C5
:10563000EE52EFCFA0F3E9EC0CF0F3CFC8FCF4CFBF
:10564000C9FC010E0C01C82503017E6F000E0C0180
:10565000C92103017F6F03017C6B7D6B04018351C2
:10566000E96EEA6AD890E936EA367F0EE926040E3A
:10567000EA22EE52EFCF7BF3DCEC07F06ED6800E21
:10568000175D03E2030E186F64D110C4E9FF11C463
:10569000EAFFEF6A09011A0E066F040E076FF2ECBB
:1056A00033F0F3CF10F4F4CF11F4080E0401185DB9
:1056B00001E14FD18351E96EEA6AD890E936EA36C2
:1056C0007F0EE926040EEA22040EEF6E16510CE15D
:1056D0008351E96EEA6AD890E936EA367F0EE92608
:1056E000040EEA22050EEF6E0C01CE6B0401166B60
:1056F000AEEF30F017EC3AF0020802E1AEEF30F016
:1057000004018351E96EEA6AD890E936EA367F0EE1
:10571000E926040EEA22050EEF6E8351E96EEA6A6D
:10572000D890E936EA367F0EE926040EEA22EE52D8
:10573000EFCF77F353EC07F0F3CF00F0F4CF01F0A5
:10574000026A036AF35004010C1943E101500D1978
:1057500040E102500E193DE103500F193AE139E1E1
:105760006EECEEF004010851265C006E09512758DA
:10577000016E0A512858026E0B512958036EE83405
:10578000000E031809E6D880000E0054000E0154E4
:10579000000E0254000E03541CE28351E96EEA6AC3
:1057A000D890E936EA367F0EE926040EEA22EE5258
:1057B000EFCF50F3A9EC03F004018351E96EEA6ADC
:1057C000D890E936EA367F0EE926040EEA220B0E5F
:1057D000CBD0180517E0090EE76E1819E8AE02D015
:1057E000E73402D0E750185D01E2A1D00B0EE76E5E
:1057F0001819E8AE02D0183503D0E750D8801855F4
:1058000001E295D0090EE76E1819E8AE02D0E73430
:1058100002D0E750185D13E30B0EE76E1819E8AEDF
:1058200002D0183503D0E750D880185508E338EC7B
:1058300037F00C01CC6FE85006E104018AD0E0ECAF
:105840003DF00C01CC6F020ECC5D1DE104018351D3
:10585000E96EEA6AD890E936EA367F0EE926040E48
:10586000EA22EE52EFCF77F353EC07F0F3CF0CF4CC
:10587000F4CF0DF40401010E0C5F000E0D5B0E6BF6
:105880000F6BAEEF30F0CC0552E104018351E96EAD
:10589000EA6AD890E936EA367F0EE926040EEA2253
:1058A000EE52EFCF77F353EC07F0F3CF0CF4F4CFD5
:1058B0000DF404010E6B0F6B6EECEEF026C008F4D5
:1058C00027C009F428C00AF429C00BF48A0E040189
:1058D0000827F00E09231B0E0A23000E0B23000ECF
:1058E000E96E040EEA6EEE500C5DEE500D59EE506E
:1058F0000E59EE500F5918E28351E96EEA6AD890BA
:10590000E936EA367F0EE926040EEA22EE52EFCFA0
:1059100080F38EEC08F0F3CF00F0F4CF01F0F350F9
:10592000F41002E0AEEF30F00401060E11D00401D5
:105930008351E96EEA6AD890E936EA367F0EE926A5
:10594000040EEA22060EEF6EFF0E145D0FE1040E48
:10595000186F8351E96EEA6AD890E936EA367F0E0D
:10596000E926040EEA22070EEF6E29D2006B016BC6
:10597000026B036BFF0E155D05E10469056906699D
:10598000076909D00001040EDC6F040EDD6F15C439
:10599000DBF0F4EC6FF004018351E96EEA6AD89011
:1059A000E936EA367F0EE926040EEA22070EEF6E8C
:1059B0000301020EBE6F0301BC6BBD6B010E030140
:1059C000BA6FBB6B04018351E96EEA6AD890E9367D
:1059D000EA367F0EE926040EEA22EE52EFCFB9F343
:1059E00005EC20F0610E006EE00E016E010E026EFD
:1059F00018C403F0046A056A03AE02D0046805689F
:105A0000030E2C6E2D6A2E6A03C027F004C028F006
:105A100005C029F0C7ECB8F024C003F025C004F09D
:105A200026C005F000502424F36E01502520F46EAA
:105A300002502620F86EF4CFF7FFF3CFF6FF0900EF
:105A4000F5CF72F30900F5CF73F30800F5CF74F3C7
:105A500004018351E96EEA6AD890E936EA367F0E8E
:105A6000E926040EEA22EE52EFCF71F3E3EC06F0E2
:105A70000C0E0401185D58E103011A0E6F6F040E3D
:105A8000706F04018351E96EEA6AD890E936EA360C
:105A90007F0EE926040EEA22EE52EFCF6EF3C5EC3C
:105AA00006F003017B0E726FEE0E736F000E746FC3
:105AB00004018351E96EEA6AD890E936EA367F0E2E
:105AC000E926040EEA22EE52EFCF71F3E3EC06F082
:105AD00003011A0E6F6F040E706F04018351E96E9B
